{
  "contractName": "Battleship",
  "abi": [
    {
      "constant": true,
      "inputs": [
        {
          "name": "",
          "type": "uint256"
        }
      ],
      "name": "games",
      "outputs": [
        {
          "name": "status",
          "type": "uint8"
        },
        {
          "name": "gridSize",
          "type": "uint8"
        },
        {
          "name": "targetIndex",
          "type": "uint8"
        },
        {
          "name": "owner",
          "type": "address"
        },
        {
          "name": "challenger",
          "type": "address"
        },
        {
          "name": "turn",
          "type": "address"
        },
        {
          "name": "winner",
          "type": "address"
        }
      ],
      "payable": false,
      "stateMutability": "view",
      "type": "function"
    },
    {
      "anonymous": false,
      "inputs": [
        {
          "indexed": false,
          "name": "gameId",
          "type": "uint256"
        },
        {
          "indexed": true,
          "name": "owner",
          "type": "address"
        },
        {
          "indexed": false,
          "name": "gridSize",
          "type": "uint8"
        }
      ],
      "name": "GameCreated",
      "type": "event"
    },
    {
      "anonymous": false,
      "inputs": [
        {
          "indexed": false,
          "name": "gameId",
          "type": "uint256"
        },
        {
          "indexed": true,
          "name": "owner",
          "type": "address"
        },
        {
          "indexed": true,
          "name": "challenger",
          "type": "address"
        }
      ],
      "name": "GameJoined",
      "type": "event"
    },
    {
      "anonymous": false,
      "inputs": [
        {
          "indexed": false,
          "name": "gameId",
          "type": "uint256"
        },
        {
          "indexed": true,
          "name": "attacker",
          "type": "address"
        },
        {
          "indexed": true,
          "name": "defender",
          "type": "address"
        },
        {
          "indexed": false,
          "name": "index",
          "type": "uint256"
        }
      ],
      "name": "Attack",
      "type": "event"
    },
    {
      "anonymous": false,
      "inputs": [
        {
          "indexed": false,
          "name": "gameId",
          "type": "uint256"
        },
        {
          "indexed": true,
          "name": "attacker",
          "type": "address"
        },
        {
          "indexed": true,
          "name": "defender",
          "type": "address"
        },
        {
          "indexed": false,
          "name": "index",
          "type": "uint256"
        },
        {
          "indexed": false,
          "name": "hit",
          "type": "bool"
        }
      ],
      "name": "AttackResult",
      "type": "event"
    },
    {
      "anonymous": false,
      "inputs": [
        {
          "indexed": false,
          "name": "gameId",
          "type": "uint256"
        },
        {
          "indexed": true,
          "name": "winner",
          "type": "address"
        },
        {
          "indexed": true,
          "name": "opponent",
          "type": "address"
        },
        {
          "indexed": false,
          "name": "void",
          "type": "bool"
        }
      ],
      "name": "GameFinished",
      "type": "event"
    },
    {
      "anonymous": false,
      "inputs": [
        {
          "indexed": false,
          "name": "gameId",
          "type": "uint256"
        },
        {
          "indexed": true,
          "name": "revealer",
          "type": "address"
        },
        {
          "indexed": true,
          "name": "opponent",
          "type": "address"
        },
        {
          "indexed": false,
          "name": "ships",
          "type": "string"
        },
        {
          "indexed": false,
          "name": "void",
          "type": "bool"
        }
      ],
      "name": "GameRevealed",
      "type": "event"
    },
    {
      "constant": true,
      "inputs": [
        {
          "name": "player",
          "type": "address"
        }
      ],
      "name": "getPlayerGames",
      "outputs": [
        {
          "name": "",
          "type": "uint256[]"
        }
      ],
      "payable": false,
      "stateMutability": "view",
      "type": "function"
    },
    {
      "constant": true,
      "inputs": [
        {
          "name": "gameId",
          "type": "uint256"
        },
        {
          "name": "player",
          "type": "address"
        }
      ],
      "name": "getGameTarget",
      "outputs": [
        {
          "name": "",
          "type": "int8[]"
        }
      ],
      "payable": false,
      "stateMutability": "view",
      "type": "function"
    },
    {
      "constant": true,
      "inputs": [
        {
          "name": "gameId",
          "type": "uint256"
        },
        {
          "name": "player",
          "type": "address"
        }
      ],
      "name": "getGameOcean",
      "outputs": [
        {
          "name": "",
          "type": "int8[]"
        }
      ],
      "payable": false,
      "stateMutability": "view",
      "type": "function"
    },
    {
      "constant": false,
      "inputs": [
        {
          "name": "gridSize",
          "type": "uint8"
        },
        {
          "name": "secret",
          "type": "bytes32"
        }
      ],
      "name": "createGame",
      "outputs": [],
      "payable": false,
      "stateMutability": "nonpayable",
      "type": "function"
    },
    {
      "constant": false,
      "inputs": [
        {
          "name": "gameId",
          "type": "uint256"
        },
        {
          "name": "secret",
          "type": "bytes32"
        }
      ],
      "name": "joinGame",
      "outputs": [],
      "payable": false,
      "stateMutability": "nonpayable",
      "type": "function"
    },
    {
      "constant": false,
      "inputs": [
        {
          "name": "gameId",
          "type": "uint256"
        },
        {
          "name": "index",
          "type": "uint8"
        }
      ],
      "name": "attack",
      "outputs": [],
      "payable": false,
      "stateMutability": "nonpayable",
      "type": "function"
    },
    {
      "constant": false,
      "inputs": [
        {
          "name": "gameId",
          "type": "uint256"
        },
        {
          "name": "index",
          "type": "uint8"
        },
        {
          "name": "hit",
          "type": "bool"
        }
      ],
      "name": "counterAttack",
      "outputs": [],
      "payable": false,
      "stateMutability": "nonpayable",
      "type": "function"
    },
    {
      "constant": false,
      "inputs": [
        {
          "name": "gameId",
          "type": "uint256"
        },
        {
          "name": "ships",
          "type": "string"
        },
        {
          "name": "salt",
          "type": "string"
        }
      ],
      "name": "reveal",
      "outputs": [],
      "payable": false,
      "stateMutability": "nonpayable",
      "type": "function"
    }
  ],
  "bytecode": "0x608060405234801561001057600080fd5b506125f2806100206000396000f300608060405260043610610099576000357c0100000000000000000000000000000000000000000000000000000000900463ffffffff168063117a5b901461009e578063129daf84146101d35780633efd14031461026b5780639f3aa7f2146102a9578063a6b65e44146102e3578063aa5a2aba14610329578063ac952671146103cb578063ca6ed7f014610406578063dd224b9c146104a8575b600080fd5b3480156100aa57600080fd5b506100c960048036038101908080359060200190929190505050610561565b604051808860048111156100d957fe5b60ff1681526020018760ff1660ff1681526020018660ff1660ff1681526020018573ffffffffffffffffffffffffffffffffffffffff1673ffffffffffffffffffffffffffffffffffffffff1681526020018473ffffffffffffffffffffffffffffffffffffffff1673ffffffffffffffffffffffffffffffffffffffff1681526020018373ffffffffffffffffffffffffffffffffffffffff1673ffffffffffffffffffffffffffffffffffffffff1681526020018273ffffffffffffffffffffffffffffffffffffffff1673ffffffffffffffffffffffffffffffffffffffff16815260200197505050505050505060405180910390f35b3480156101df57600080fd5b50610214600480360381019080803573ffffffffffffffffffffffffffffffffffffffff169060200190929190505050610659565b6040518080602001828103825283818151815260200191508051906020019060200280838360005b8381101561025757808201518184015260208101905061023c565b505050509050019250505060405180910390f35b34801561027757600080fd5b506102a7600480360381019080803560ff16906020019092919080356000191690602001909291905050506106f0565b005b3480156102b557600080fd5b506102e160048036038101908080359060200190929190803560ff169060200190929190505050610a1d565b005b3480156102ef57600080fd5b5061032760048036038101908080359060200190929190803560ff169060200190929190803515159060200190929190505050610b4e565b005b34801561033557600080fd5b5061037460048036038101908080359060200190929190803573ffffffffffffffffffffffffffffffffffffffff16906020019092919050505061103f565b6040518080602001828103825283818151815260200191508051906020019060200280838360005b838110156103b757808201518184015260208101905061039c565b505050509050019250505060405180910390f35b3480156103d757600080fd5b5061040460048036038101908080359060200190929190803560001916906020019092919050505061111b565b005b34801561041257600080fd5b5061045160048036038101908080359060200190929190803573ffffffffffffffffffffffffffffffffffffffff1690602001909291905050506114d7565b6040518080602001828103825283818151815260200191508051906020019060200280838360005b83811015610494578082015181840152602081019050610479565b505050509050019250505060405180910390f35b3480156104b457600080fd5b5061055f60048036038101908080359060200190929190803590602001908201803590602001908080601f0160208091040260200160405190810160405280939291908181526020018383808284378201915050505050509192919290803590602001908201803590602001908080601f01602080910402602001604051908101604052809392919081815260200183838082843782019150505050505091929192905050506115c2565b005b60008181548110151561057057fe5b90600052602060002090600802016000915090508060000160009054906101000a900460ff16908060000160019054906101000a900460ff16908060000160029054906101000a900460ff16908060000160039054906101000a900473ffffffffffffffffffffffffffffffffffffffff16908060010160009054906101000a900473ffffffffffffffffffffffffffffffffffffffff16908060020160009054906101000a900473ffffffffffffffffffffffffffffffffffffffff16908060030160009054906101000a900473ffffffffffffffffffffffffffffffffffffffff16905087565b6060600160008373ffffffffffffffffffffffffffffffffffffffff1673ffffffffffffffffffffffffffffffffffffffff1681526020019081526020016000208054806020026020016040519081016040528092919081815260200182805480156106e457602002820191906000526020600020905b8154815260200190600101908083116106d0575b50505050509050919050565b6000808054905090506000805480919060010161070d91906122fb565b506000808281548110151561071e57fe5b906000526020600020906008020160000160006101000a81548160ff0219169083600481111561074a57fe5b02179055508260008281548110151561075f57fe5b906000526020600020906008020160000160016101000a81548160ff021916908360ff1602179055503360008281548110151561079857fe5b906000526020600020906008020160000160036101000a81548173ffffffffffffffffffffffffffffffffffffffff021916908373ffffffffffffffffffffffffffffffffffffffff160217905550336000828154811015156107f757fe5b906000526020600020906008020160020160006101000a81548173ffffffffffffffffffffffffffffffffffffffff021916908373ffffffffffffffffffffffffffffffffffffffff1602179055508160008281548110151561085657fe5b906000526020600020906008020160040160003373ffffffffffffffffffffffffffffffffffffffff1673ffffffffffffffffffffffffffffffffffffffff16815260200190815260200160002081600019169055506002830a60ff166040519080825280602002602001820160405280156108e15781602001602082028038833980820191505090505b506000828154811015156108f157fe5b906000526020600020906008020160060160003373ffffffffffffffffffffffffffffffffffffffff1673ffffffffffffffffffffffffffffffffffffffff168152602001908152602001600020908051906020019061095292919061232d565b50600160003373ffffffffffffffffffffffffffffffffffffffff1673ffffffffffffffffffffffffffffffffffffffff1681526020019081526020016000208190806001815401808255809150509060018203906000526020600020016000909192909190915055503373ffffffffffffffffffffffffffffffffffffffff167fdd0abcdffc76581d11646898ee4d7f269ca1e0c0b622d072d343100dad83ecb18285604051808381526020018260ff1660ff1681526020019250505060405180910390a2505050565b60008260016004811115610a2d57fe5b600082815481101515610a3c57fe5b906000526020600020906008020160000160009054906101000a900460ff166004811115610a6657fe5b141515610a7257600080fd5b83600081815481101515610a8257fe5b906000526020600020906008020160020160009054906101000a900473ffffffffffffffffffffffffffffffffffffffff1673ffffffffffffffffffffffffffffffffffffffff163373ffffffffffffffffffffffffffffffffffffffff16141515610aed57600080fd5b610af78533611e6c565b92506002600086815481101515610b0a57fe5b906000526020600020906008020160000160006101000a81548160ff02191690836004811115610b3657fe5b0217905550610b4785338587611f71565b5050505050565b600080610b596123d7565b60008060008860026004811115610b6c57fe5b600082815481101515610b7b57fe5b906000526020600020906008020160000160009054906101000a900460ff166004811115610ba557fe5b141515610bb157600080fd5b89600081815481101515610bc157fe5b906000526020600020906008020160020160009054906101000a900473ffffffffffffffffffffffffffffffffffffffff1673ffffffffffffffffffffffffffffffffffffffff163373ffffffffffffffffffffffffffffffffffffffff16141515610c2c57600080fd5b610c368b33611e6c565b975060008b815481101515610c4757fe5b906000526020600020906008020160000160029054906101000a900460ff16965088610c93577fffffffffffffffffffffffffffffffffffffffffffffffffffffffffffffffff610c96565b60015b60008c815481101515610ca557fe5b906000526020600020906008020160060160008a73ffffffffffffffffffffffffffffffffffffffff1673ffffffffffffffffffffffffffffffffffffffff1681526020019081526020016000208860ff16815481101515610d0357fe5b90600052602060002090602091828204019190066101000a81548160ff021916908360000b60ff1602179055503373ffffffffffffffffffffffffffffffffffffffff168873ffffffffffffffffffffffffffffffffffffffff167fa2315efec4d5e20b003e5d4f3f3b4482c0ff24139c531e2295053e20611b44a08d8a8d604051808481526020018360ff16815260200182151515158152602001935050505060405180910390a3610db88b338a8d611f71565b610e9260008c815481101515610dca57fe5b906000526020600020906008020160060160008a73ffffffffffffffffffffffffffffffffffffffff1673ffffffffffffffffffffffffffffffffffffffff168152602001908152602001600020805480602002602001604051908101604052809291908181526020018280548015610e8857602002820191906000526020600020906000905b82829054906101000a900460000b60000b81526020019060010190602082600001049283019260010382029150808411610e515790505b505050505061207f565b9550610eca60008c815481101515610ea657fe5b906000526020600020906008020160000160019054906101000a900460ff16612178565b945084866001600381101515610edc57fe5b6020020151149350856002600381101515610ef357fe5b6020020151866001600381101515610f0757fe5b602002015186031192508380610f1a5750825b1561103257600360008c815481101515610f3057fe5b906000526020600020906008020160000160006101000a81548160ff02191690836004811115610f5c57fe5b02179055508760008c815481101515610f7157fe5b906000526020600020906008020160030160006101000a81548173ffffffffffffffffffffffffffffffffffffffff021916908373ffffffffffffffffffffffffffffffffffffffff1602179055503373ffffffffffffffffffffffffffffffffffffffff168873ffffffffffffffffffffffffffffffffffffffff167f705a40d86da29e8665f1e99fbdfad678c2a87a93ac9bcd3d8b8a288c917b64b18d8660405180838152602001821515151581526020019250505060405180910390a35b5050505050505050505050565b606060008381548110151561105057fe5b906000526020600020906008020160060160008373ffffffffffffffffffffffffffffffffffffffff1673ffffffffffffffffffffffffffffffffffffffff16815260200190815260200160002080548060200260200160405190810160405280929190818152602001828054801561110e57602002820191906000526020600020906000905b82829054906101000a900460000b60000b815260200190600101906020826000010492830192600103820291508084116110d75790505b5050505050905092915050565b816000600481111561112957fe5b60008281548110151561113857fe5b906000526020600020906008020160000160009054906101000a900460ff16600481111561116257fe5b14151561116e57600080fd5b60008381548110151561117d57fe5b906000526020600020906008020160000160039054906101000a900473ffffffffffffffffffffffffffffffffffffffff1673ffffffffffffffffffffffffffffffffffffffff163373ffffffffffffffffffffffffffffffffffffffff16141515156111e957600080fd5b60016000848154811015156111fa57fe5b906000526020600020906008020160000160006101000a81548160ff0219169083600481111561122657fe5b02179055503360008481548110151561123b57fe5b906000526020600020906008020160010160006101000a81548173ffffffffffffffffffffffffffffffffffffffff021916908373ffffffffffffffffffffffffffffffffffffffff1602179055508160008481548110151561129a57fe5b906000526020600020906008020160040160003373ffffffffffffffffffffffffffffffffffffffff1673ffffffffffffffffffffffffffffffffffffffff1681526020019081526020016000208160001916905550600260008481548110151561130157fe5b906000526020600020906008020160000160019054906101000a900460ff160a60ff166040519080825280602002602001820160405280156113525781602001602082028038833980820191505090505b5060008481548110151561136257fe5b906000526020600020906008020160060160003373ffffffffffffffffffffffffffffffffffffffff1673ffffffffffffffffffffffffffffffffffffffff16815260200190815260200160002090805190602001906113c392919061232d565b50600160003373ffffffffffffffffffffffffffffffffffffffff1673ffffffffffffffffffffffffffffffffffffffff1681526020019081526020016000208390806001815401808255809150509060018203906000526020600020016000909192909190915055503373ffffffffffffffffffffffffffffffffffffffff1660008481548110151561145357fe5b906000526020600020906008020160000160039054906101000a900473ffffffffffffffffffffffffffffffffffffffff1673ffffffffffffffffffffffffffffffffffffffff167f8ca5b55df47712c5e59e7aaddc402fc30e6399e3498efec70a7e440bb9d2fac8856040518082815260200191505060405180910390a3505050565b606060006114e58484611e6c565b90506000848154811015156114f657fe5b906000526020600020906008020160060160008273ffffffffffffffffffffffffffffffffffffffff1673ffffffffffffffffffffffffffffffffffffffff1681526020019081526020016000208054806020026020016040519081016040528092919081815260200182805480156115b457602002820191906000526020600020906000905b82829054906101000a900460000b60000b8152602001906001019060208260000104928301926001038202915080841161157d5790505b505050505091505092915050565b6000606060008060008088600360048111156115da57fe5b6000828154811015156115e957fe5b906000526020600020906008020160000160009054906101000a900460ff16600481111561161357fe5b14151561161f57600080fd5b8960008181548110151561162f57fe5b906000526020600020906008020160000160039054906101000a900473ffffffffffffffffffffffffffffffffffffffff1673ffffffffffffffffffffffffffffffffffffffff163373ffffffffffffffffffffffffffffffffffffffff16148061170557506000818154811015156116a457fe5b906000526020600020906008020160010160009054906101000a900473ffffffffffffffffffffffffffffffffffffffff1673ffffffffffffffffffffffffffffffffffffffff163373ffffffffffffffffffffffffffffffffffffffff16145b151561171057600080fd5b8a6000808281548110151561172157fe5b906000526020600020906008020160050160003373ffffffffffffffffffffffffffffffffffffffff1673ffffffffffffffffffffffffffffffffffffffff16815260200190815260200160002080546001816001161561010002031660029004905014151561179057600080fd5b61179a8b8b6121cd565b985060008c8154811015156117ab57fe5b906000526020600020906008020160040160003373ffffffffffffffffffffffffffffffffffffffff1673ffffffffffffffffffffffffffffffffffffffff1681526020019081526020016000205460001916896000191614151561180f57600080fd5b8a9750600096506118208c33611e6c565b9550600094505b8751851015611a1f577f3000000000000000000000000000000000000000000000000000000000000000888681518110151561185f57fe5b9060200101517f010000000000000000000000000000000000000000000000000000000000000090047f0100000000000000000000000000000000000000000000000000000000000000027effffffffffffffffffffffffffffffffffffffffffffffffffffffffffffff191614156118d757611a12565b6000808d8154811015156118e757fe5b906000526020600020906008020160060160008873ffffffffffffffffffffffffffffffffffffffff1673ffffffffffffffffffffffffffffffffffffffff1681526020019081526020016000208681548110151561194257fe5b90600052602060002090602091828204019190069054906101000a900460000b60000b141561197057611a12565b600160000b60008d81548110151561198457fe5b906000526020600020906008020160060160008873ffffffffffffffffffffffffffffffffffffffff1673ffffffffffffffffffffffffffffffffffffffff168152602001908152602001600020868154811015156119df57fe5b90600052602060002090602091828204019190069054906101000a900460000b60000b141596508615611a1157611a1f565b5b8480600101955050611827565b8a60008d815481101515611a2f57fe5b906000526020600020906008020160050160003373ffffffffffffffffffffffffffffffffffffffff1673ffffffffffffffffffffffffffffffffffffffff1681526020019081526020016000209080519060200190611a909291906123fa565b508660008d815481101515611aa157fe5b906000526020600020906008020160070160003373ffffffffffffffffffffffffffffffffffffffff1673ffffffffffffffffffffffffffffffffffffffff16815260200190815260200160002060006101000a81548160ff0219169083151502179055506000808d815481101515611b1657fe5b906000526020600020906008020160050160008873ffffffffffffffffffffffffffffffffffffffff1673ffffffffffffffffffffffffffffffffffffffff1681526020019081526020016000208054600181600116156101000203166002900490501193508315611bc557600460008d815481101515611b9357fe5b906000526020600020906008020160000160006101000a81548160ff02191690836004811115611bbf57fe5b02179055505b8615611d80573373ffffffffffffffffffffffffffffffffffffffff1660008d815481101515611bf157fe5b906000526020600020906008020160030160009054906101000a900473ffffffffffffffffffffffffffffffffffffffff1673ffffffffffffffffffffffffffffffffffffffff161415611c9f576000808d815481101515611c4f57fe5b906000526020600020906008020160030160006101000a81548173ffffffffffffffffffffffffffffffffffffffff021916908373ffffffffffffffffffffffffffffffffffffffff1602179055505b838015611d1a57506000151560008d815481101515611cba57fe5b906000526020600020906008020160070160008873ffffffffffffffffffffffffffffffffffffffff1673ffffffffffffffffffffffffffffffffffffffff16815260200190815260200160002060009054906101000a900460ff161515145b15611d7f578560008d815481101515611d2f57fe5b906000526020600020906008020160030160006101000a81548173ffffffffffffffffffffffffffffffffffffffff021916908373ffffffffffffffffffffffffffffffffffffffff1602179055505b5b8573ffffffffffffffffffffffffffffffffffffffff163373ffffffffffffffffffffffffffffffffffffffff167f465939a9cb0bde2fcec8c88d9f99ed138c947e027d3e1ddfe4159b6ed5adcd128e8e8b604051808481526020018060200183151515158152602001828103825284818151815260200191508051906020019080838360005b83811015611e22578082015181840152602081019050611e07565b50505050905090810190601f168015611e4f5780820380516001836020036101000a031916815260200191505b5094505050505060405180910390a3505050505050505050505050565b60008173ffffffffffffffffffffffffffffffffffffffff16600084815481101515611e9457fe5b906000526020600020906008020160000160039054906101000a900473ffffffffffffffffffffffffffffffffffffffff1673ffffffffffffffffffffffffffffffffffffffff1614611f2757600083815481101515611ef057fe5b906000526020600020906008020160000160039054906101000a900473ffffffffffffffffffffffffffffffffffffffff16611f69565b600083815481101515611f3657fe5b906000526020600020906008020160010160009054906101000a900473ffffffffffffffffffffffffffffffffffffffff165b905092915050565b80600085815481101515611f8157fe5b906000526020600020906008020160000160026101000a81548160ff021916908360ff16021790555081600085815481101515611fba57fe5b906000526020600020906008020160020160006101000a81548173ffffffffffffffffffffffffffffffffffffffff021916908373ffffffffffffffffffffffffffffffffffffffff1602179055508173ffffffffffffffffffffffffffffffffffffffff168373ffffffffffffffffffffffffffffffffffffffff167fc95238986bf335b5875cdc0a5b57b3c76a36f058a3e3cc60d1ba023b3ea175f78684604051808381526020018260ff1681526020019250505060405180910390a350505050565b6120876123d7565b600080600080600090505b8551811015612151577fffffffffffffffffffffffffffffffffffffffffffffffffffffffffffffffff60000b86828151811015156120cd57fe5b9060200190602002015160000b14156120e95783806001019450505b600160000b86828151811015156120fc57fe5b9060200190602002015160000b14156121185782806001019350505b6000868281518110151561212857fe5b9060200190602002015160000b14156121445781806001019250505b8080600101915050612092565b60606040519081016040528085815260200184815260200183815250945050505050919050565b6000600360ff168260ff16141561219557600260ff1690506121c8565b600560ff168260ff1614156121b5576002600380010160ff1690506121c8565b6002600380600460050101010160ff1690505b919050565b600082826040516020018083805190602001908083835b60208310151561220957805182526020820191506020810190506020830392506121e4565b6001836020036101000a03801982511681845116808217855250505050505090500182805190602001908083835b60208310151561225c5780518252602082019150602081019050602083039250612237565b6001836020036101000a038019825116818451168082178552505050505050905001925050506040516020818303038152906040526040518082805190602001908083835b6020831015156122c657805182526020820191506020810190506020830392506122a1565b6001836020036101000a0380198251168184511680821785525050505050509050019150506040518091039020905092915050565b81548183558181111561232857600802816008028360005260206000209182019101612327919061247a565b5b505050565b82805482825590600052602060002090601f016020900481019282156123c65791602002820160005b8382111561239757835183826101000a81548160ff021916908360000b60ff1602179055509260200192600101602081600001049283019260010302612356565b80156123c45782816101000a81549060ff0219169055600101602081600001049283019260010302612397565b505b5090506123d39190612571565b5090565b606060405190810160405280600390602082028038833980820191505090505090565b828054600181600116156101000203166002900490600052602060002090601f016020900481019282601f1061243b57805160ff1916838001178555612469565b82800160010185558215612469579182015b8281111561246857825182559160200191906001019061244d565b5b50905061247691906125a1565b5090565b61256e91905b8082111561256a57600080820160006101000a81549060ff02191690556000820160016101000a81549060ff02191690556000820160026101000a81549060ff02191690556000820160036101000a81549073ffffffffffffffffffffffffffffffffffffffff02191690556001820160006101000a81549073ffffffffffffffffffffffffffffffffffffffff02191690556002820160006101000a81549073ffffffffffffffffffffffffffffffffffffffff02191690556003820160006101000a81549073ffffffffffffffffffffffffffffffffffffffff021916905550600801612480565b5090565b90565b61259e91905b8082111561259a57600081816101000a81549060ff021916905550600101612577565b5090565b90565b6125c391905b808211156125bf5760008160009055506001016125a7565b5090565b905600a165627a7a72305820136ea7b62a6e6e37bf7118587312276f632d6c9ae81356ec8feb9863a48724ed0029",
  "source": "pragma solidity ^0.4.22;\n\n/// @title Battleship game on ethereum (Consensys Academy Final Project)\n/// @author eightyfive\ncontract Battleship\n{\n  //\n  // Constants\n  //\n  uint8 constant GRID_LARGE = 10;\n  uint8 constant GRID_SMALL = 5;\n  uint8 constant GRID_XSMALL = 3;\n\n  uint8 constant SHIP_CARRIER = 5;\n  uint8 constant SHIP_BATTLESHIP = 4;\n  uint8 constant SHIP_CRUISER = 3;\n  uint8 constant SHIP_SUBMARINE = 3;\n  uint8 constant SHIP_DESTROYER = 2;\n\n  int8 constant HIT = 1;\n  int8 constant MISS = -1;\n\n  //\n  // Modifiers\n  //\n\n  /// @dev Makes sure player is part of the game\n  modifier onlyPlayer(uint gameId) {\n    require(msg.sender == games[gameId].owner || msg.sender == games[gameId].challenger);\n    _;\n  }\n\n  /// @dev Makes sure it is `sender` turn\n  modifier myTurn(uint gameId) {\n    require(msg.sender == games[gameId].turn);\n    _;\n  }\n\n  /// @dev Makes sure game.status is OPEN\n  modifier gameOpen(uint gameId) {\n    require(games[gameId].status == GameStatus.OPEN);\n    _;\n  }\n\n  /// @dev Makes sure game.status is READY\n  modifier gameReady(uint gameId) {\n    require(games[gameId].status == GameStatus.READY);\n    _;\n  }\n\n  /// @dev Makes sure game.status is STARTED\n  modifier gameStarted(uint gameId) {\n    require(games[gameId].status == GameStatus.STARTED);\n    _;\n  }\n\n  /// @dev Makes sure game.status is FINISHED\n  modifier gameFinished(uint gameId) {\n    require(games[gameId].status == GameStatus.FINISHED);\n    _;\n  }\n\n  /// @dev Makes sure `sender` has not revealed yet\n  modifier notRevealed(uint gameId) {\n    require(bytes(games[gameId].ships[msg.sender]).length == 0);\n    _;\n  }\n\n  //\n  // Events\n  //\n\n  /// @dev `gameId` Game ID\n  /// @dev `owner` Address who created the game\n  /// @dev `gridSize` The size of the target/ocean grid\n  event GameCreated(uint gameId, address indexed owner, uint8 gridSize);\n\n  /// @dev `gameId` Game ID\n  /// @dev `owner` Address who created the game\n  /// @dev `challenger` Address who joined the open game\n  event GameJoined(uint gameId, address indexed owner, address indexed challenger);\n\n  /// @dev `gameId` Game ID\n  /// @dev `attacker` Address who performed the attack\n  /// @dev `defender` Address who suffured the attack\n  /// @dev `index` Index of the attack\n  event Attack(uint gameId, address indexed attacker, address indexed defender, uint index);\n\n  /// @dev `gameId` Game ID\n  /// @dev `attacker` Address who performed the attack\n  /// @dev `defender` Address who suffured the attack\n  /// @dev `index` Index of the attack\n  /// @dev `hit` Result of the attack\n  event AttackResult(uint gameId, address indexed attacker, address indexed defender, uint index, bool hit);\n\n  /// @dev `gameId` Game ID\n  /// @dev `winner` Address who won the game\n  /// @dev `opponent` Address of opponent player\n  /// @dev `void` If game is void (cheated)\n  event GameFinished(uint gameId, address indexed winner, address indexed opponent, bool void);\n\n  /// @dev `gameId` Game ID\n  /// @dev `revealer` Address who revealed its ships positions\n  /// @dev `opponent` Address of opponent player\n  /// @dev `ships` Unobfuscated ships positions\n  /// @dev `void` If ships positions are void (cheated)\n  event GameRevealed(uint gameId, address indexed revealer, address indexed opponent, string ships, bool void);\n\n  //\n  // State definition\n  //\n\n  enum GameStatus { OPEN, READY, STARTED, FINISHED, DONE }\n\n  /// @dev Note on \"ocean/target\" grids:\n  /// @dev \"Ocean\" is the lower grid on a normal battleship boardgame (where you place your ships)\n  /// @dev \"Target\" is the upper grid on a normal battleship boardgame (where you aim at your opponent)\n  /// @dev Implementation: \"Target\" of player A is \"Ocean\" of Player B\n  //\n  /// @dev Kept same types together (struct best practice)\n  /// @dev Tried to define types as precise as possible (best practice)\n  struct Game {\n    GameStatus status;\n    uint8 gridSize;\n    uint8 targetIndex;\n    address owner;\n    address challenger;\n    address turn;\n    address winner;\n    mapping (address => bytes32) secrets;\n    mapping (address => string) ships;\n    mapping (address => int8[]) targets;\n    mapping (address => bool) cheated;\n  }\n\n  /// @dev self-explanatory\n  Game[] public games;\n\n  /// @dev Maps address to array of game IDs\n  mapping (address => uint[]) private playerGames;\n\n  //\n  // Functions\n  // https://solidity.readthedocs.io/en/v0.4.24/style-guide.html#order-of-functions\n  //\n\n  //\n  // External functions\n  //\n\n  /// @param player Player address\n  /// @return List of game IDs\n  function getPlayerGames(address player) external view returns(uint[])\n  {\n    return playerGames[player];\n  }\n\n  /// @param gameId Game ID\n  /// @param player Player address\n  /// @return Current \"target\" grid of player\n  function getGameTarget(uint gameId, address player) external view returns(int8[])\n  {\n    return games[gameId].targets[player];\n  }\n\n  /// @param gameId Game ID\n  /// @param player Player address\n  /// @return Current \"ocean\" grid of player (--> \"target\" grid of opponent!)\n  function getGameOcean(uint gameId, address player) external view returns(int8[])\n  {\n    address opponent = getOpponent(gameId, player);\n\n    return games[gameId].targets[opponent];\n  }\n\n  //\n  // Public functions\n  //\n\n  /// @param gridSize Size of the grid(s). Ex: size = 3 --> 9 positions.\n  /// @param secret Obfuscated ships positions (revealed at the end of the game)\n  function createGame(uint8 gridSize, bytes32 secret) public\n  {\n    // Game ID is just the normal array index.\n    uint gameId = games.length;\n\n    // Creates new (empty) Game\n    games.length++;\n\n    // Fill game\n    games[gameId].status = GameStatus.OPEN;\n    games[gameId].gridSize = gridSize;\n    games[gameId].owner = msg.sender;\n    games[gameId].turn = msg.sender;\n    games[gameId].secrets[msg.sender] = secret;\n    games[gameId].targets[msg.sender] = new int8[](gridSize ** 2);\n\n    // Link game to player\n    playerGames[msg.sender].push(gameId);\n\n    emit GameCreated(gameId, msg.sender, gridSize);\n  }\n\n  /// @param gameId Game ID\n  /// @param secret Obfuscated ships positions\n  function joinGame(uint gameId, bytes32 secret) public gameOpen(gameId)\n  {\n    require(msg.sender != games[gameId].owner);\n\n    // Update game\n    games[gameId].status = GameStatus.READY;\n    games[gameId].challenger = msg.sender;\n    games[gameId].secrets[msg.sender] = secret;\n    games[gameId].targets[msg.sender] = new int8[](games[gameId].gridSize ** 2);\n\n    // Link game to player\n    playerGames[msg.sender].push(gameId);\n\n    emit GameJoined(gameId, games[gameId].owner, msg.sender);\n  }\n\n  /// @param gameId Game ID\n  /// @param index Index of the attack\n  /// @dev Only used once (1st attack of the game), then all attacks go through `counterAttack` function\n  function attack(uint gameId, uint8 index) public gameReady(gameId) myTurn(gameId)\n  {\n    address opponent = getOpponent(gameId, msg.sender);\n\n    games[gameId].status = GameStatus.STARTED;\n\n    _attack(gameId, msg.sender, opponent, index);\n  }\n\n  /// @param gameId Game ID\n  /// @param index Index of the attack\n  /// @param hit Feedback of previous attack suffered by `sender`\n  /// @dev Counter attack is just an attack carrying the feedback of the previous suffured attack\n  /// @dev That way, only one Tx is necessary instead of two: Feedback + new Attack\n  function counterAttack(uint gameId, uint8 index, bool hit) public gameStarted(gameId) myTurn(gameId)\n  {\n    address opponent = getOpponent(gameId, msg.sender);\n    uint8 targetIndex = games[gameId].targetIndex;\n\n    // 1- Opponent attack result\n    games[gameId].targets[opponent][targetIndex] = hit ? HIT : MISS;\n\n    emit AttackResult(gameId, opponent, msg.sender, targetIndex, hit);\n\n    // 2- Counter attack\n    _attack(gameId, msg.sender, opponent, index);\n\n    // 3- Opponent win ?\n    // state = [miss, hit, empty]\n    uint[3] memory state = getGridState(games[gameId].targets[opponent]);\n    uint fleet = getFleetSize(games[gameId].gridSize);\n\n    // hits == fleet size\n    bool isWon = state[1] == fleet;\n\n    // hits + misses = max\n    // bool isFull = (state[0] + state[1]) == games[gameId].gridSize ** 2;\n\n    // (fleet size - hits) > empty\n    bool isVoid = (fleet - state[1]) > state[2];\n\n    if (isWon || isVoid) {\n      games[gameId].status = GameStatus.FINISHED;\n      games[gameId].winner = opponent;\n\n      emit GameFinished(gameId, opponent, msg.sender, isVoid);\n    }\n  }\n\n  /// @param gameId Game ID\n  /// @param ships Unobfuscated ships positions\n  /// @param salt Secret salt used to obfuscate ships Client-side (JS)\n  /// @dev This function builds the initial `secret` \"Blockchain-side\"\n  /// @dev Then it makes sure ships positions match HITs on opponent's \"target\"\n  function reveal(uint gameId, string ships, string salt) public gameFinished(gameId) onlyPlayer(gameId) notRevealed(gameId)\n  {\n    bytes32 secret = getSecret(ships, salt);\n\n    // 1- Check integrity of ships\n    require(secret == games[gameId].secrets[msg.sender]);\n\n    // 2- Check if cheated (reported MISS when HIT)\n    bytes memory positions = bytes(ships);\n    bool cheated = false;\n\n    address opponent = getOpponent(gameId, msg.sender);\n\n    // Check if ships are all HITs\n    for (uint i = 0; i < positions.length; i++) {\n      // Position on ocean is empty (ignore)\n      if (positions[i] == \"0\") {\n        continue;\n      }\n\n      // Position on target is empty (ignore)\n      if (games[gameId].targets[opponent][i] == 0) {\n        continue;\n      }\n\n      // Position is a ship\n      // Check if HIT\n      cheated = games[gameId].targets[opponent][i] != HIT;\n\n      if (cheated) {\n        break;\n      }\n    }\n\n    // Finally update state\n    games[gameId].ships[msg.sender] = ships;\n    games[gameId].cheated[msg.sender] = cheated;\n\n    // If opponent has revealed as well\n    bool isDone = bytes(games[gameId].ships[opponent]).length > 0;\n\n    if (isDone) {\n      games[gameId].status = GameStatus.DONE;\n    }\n\n    if (cheated) {\n        // If was winner, remove\n        if (games[gameId].winner == msg.sender) {\n          games[gameId].winner = 0x00;\n        }\n\n        // If opponent has not cheated, make him winner\n        if (isDone && games[gameId].cheated[opponent] == false) {\n          games[gameId].winner = opponent;\n        }\n    }\n\n    emit GameRevealed(gameId, msg.sender, opponent, ships, cheated);\n  }\n\n  //\n  // Internal functions\n  //\n\n  /// @param gameId Game ID\n  /// @param attacker Address attacking\n  /// @param defender Address \"defending\" (opponent)\n  /// @param index Index of the attack\n  /// @dev This is the \"real\" attack function\n  function _attack(uint gameId, address attacker, address defender, uint8 index) internal {\n    games[gameId].targetIndex = index;\n    games[gameId].turn = defender; // Toggle turn\n\n    emit Attack(gameId, attacker, defender, index);\n  }\n\n  /// @param gameId Game ID\n  /// @param player Current player address\n  /// @return Opponent player address\n  function getOpponent(uint gameId, address player) internal view returns(address) {\n    return games[gameId].owner == player ? games[gameId].challenger : games[gameId].owner;\n  }\n\n  /// @param ships Unobfuscated ships positions\n  /// @param salt Secret salt used to obfuscate ships Client-side (JS)\n  /// @return secret of ships positions\n  function getSecret(string ships, string salt) internal pure returns(bytes32) {\n    return keccak256(abi.encodePacked(ships, salt));\n  }\n\n  /// @param grid Target/ocean grid of positions\n  /// @return number of misses, number of hits, number of empty positions\n  function getGridState(int8[] grid) internal pure returns(uint[3]) {\n    uint miss;\n    uint hit;\n    uint empty;\n\n    for (uint i = 0; i < grid.length; i++) {\n      if (grid[i] == MISS) {\n        miss++;\n      }\n\n      if (grid[i] == HIT) {\n        hit++;\n      }\n\n      if (grid[i] == 0) {\n        empty++;\n      }\n    }\n\n    return [miss, hit, empty];\n  }\n\n  /// @param gridSize Size of the grid\n  /// @return Total length of all ships given grid size\n  function getFleetSize(uint8 gridSize) internal pure returns(uint) {\n    if (gridSize == GRID_XSMALL) {\n      return SHIP_DESTROYER; // 2\n    }\n\n    if (gridSize == GRID_SMALL) {\n      return SHIP_CRUISER + SHIP_SUBMARINE + SHIP_DESTROYER; // 8\n    }\n\n    // GRID_LARGE\n    return SHIP_CARRIER + SHIP_BATTLESHIP + SHIP_CRUISER + SHIP_SUBMARINE + SHIP_DESTROYER; // 17\n  }\n}\n",
  "sourcePath": "/Users/benoit/var/eth/battleship/contracts/Battleship.sol",
  "compiler": {
    "name": "solc",
    "version": "0.4.24+commit.e67f0147.Emscripten.clang"
  },
  "schemaVersion": "2.0.1",
  "updatedAt": "2018-08-26T17:54:09.250Z"
}